{
  "contractName": "AudioChain",
  "abi": [
    {
      "anonymous": false,
      "inputs": [
        {
          "indexed": true,
          "internalType": "uint256",
          "name": "id",
          "type": "uint256"
        },
        {
          "indexed": true,
          "internalType": "address",
          "name": "owner",
          "type": "address"
        },
        {
          "indexed": false,
          "internalType": "string",
          "name": "ipfsHash",
          "type": "string"
        },
        {
          "indexed": false,
          "internalType": "uint256",
          "name": "price",
          "type": "uint256"
        }
      ],
      "name": "AudioPublished",
      "type": "event"
    },
    {
      "anonymous": false,
      "inputs": [
        {
          "indexed": true,
          "internalType": "uint256",
          "name": "id",
          "type": "uint256"
        },
        {
          "indexed": true,
          "internalType": "address",
          "name": "buyer",
          "type": "address"
        },
        {
          "indexed": true,
          "internalType": "address",
          "name": "seller",
          "type": "address"
        },
        {
          "indexed": false,
          "internalType": "uint256",
          "name": "amount",
          "type": "uint256"
        }
      ],
      "name": "AudioPurchased",
      "type": "event"
    },
    {
      "inputs": [
        {
          "internalType": "address",
          "name": "",
          "type": "address"
        },
        {
          "internalType": "uint256",
          "name": "",
          "type": "uint256"
        }
      ],
      "name": "audioAccess",
      "outputs": [
        {
          "internalType": "bool",
          "name": "",
          "type": "bool"
        }
      ],
      "stateMutability": "view",
      "type": "function"
    },
    {
      "inputs": [
        {
          "internalType": "uint256",
          "name": "",
          "type": "uint256"
        }
      ],
      "name": "audios",
      "outputs": [
        {
          "internalType": "uint256",
          "name": "id",
          "type": "uint256"
        },
        {
          "internalType": "string",
          "name": "title",
          "type": "string"
        },
        {
          "internalType": "string",
          "name": "artist",
          "type": "string"
        },
        {
          "internalType": "string",
          "name": "ipfsHash",
          "type": "string"
        },
        {
          "internalType": "uint256",
          "name": "price",
          "type": "uint256"
        },
        {
          "internalType": "address payable",
          "name": "owner",
          "type": "address"
        },
        {
          "internalType": "bool",
          "name": "isForSale",
          "type": "bool"
        }
      ],
      "stateMutability": "view",
      "type": "function"
    },
    {
      "inputs": [],
      "name": "platformFee",
      "outputs": [
        {
          "internalType": "uint256",
          "name": "",
          "type": "uint256"
        }
      ],
      "stateMutability": "view",
      "type": "function"
    },
    {
      "inputs": [
        {
          "internalType": "address",
          "name": "",
          "type": "address"
        },
        {
          "internalType": "uint256",
          "name": "",
          "type": "uint256"
        }
      ],
      "name": "userAudios",
      "outputs": [
        {
          "internalType": "uint256",
          "name": "",
          "type": "uint256"
        }
      ],
      "stateMutability": "view",
      "type": "function"
    },
    {
      "inputs": [
        {
          "internalType": "string",
          "name": "_title",
          "type": "string"
        },
        {
          "internalType": "string",
          "name": "_artist",
          "type": "string"
        },
        {
          "internalType": "string",
          "name": "_ipfsHash",
          "type": "string"
        },
        {
          "internalType": "uint256",
          "name": "_price",
          "type": "uint256"
        }
      ],
      "name": "publishAudio",
      "outputs": [
        {
          "internalType": "uint256",
          "name": "",
          "type": "uint256"
        }
      ],
      "stateMutability": "nonpayable",
      "type": "function"
    },
    {
      "inputs": [
        {
          "internalType": "uint256",
          "name": "_audioId",
          "type": "uint256"
        }
      ],
      "name": "purchaseAudio",
      "outputs": [],
      "stateMutability": "payable",
      "type": "function"
    },
    {
      "inputs": [
        {
          "internalType": "address",
          "name": "_user",
          "type": "address"
        },
        {
          "internalType": "uint256",
          "name": "_audioId",
          "type": "uint256"
        }
      ],
      "name": "hasAccess",
      "outputs": [
        {
          "internalType": "bool",
          "name": "",
          "type": "bool"
        }
      ],
      "stateMutability": "view",
      "type": "function"
    },
    {
      "inputs": [],
      "name": "getAudioCount",
      "outputs": [
        {
          "internalType": "uint256",
          "name": "",
          "type": "uint256"
        }
      ],
      "stateMutability": "view",
      "type": "function"
    },
    {
      "inputs": [
        {
          "internalType": "address payable",
          "name": "_recipient",
          "type": "address"
        }
      ],
      "name": "withdrawPlatformFees",
      "outputs": [],
      "stateMutability": "nonpayable",
      "type": "function"
    }
  ],
  "bytecode": "0x60806040526001600055600a60045534801561001a57600080fd5b50610c708061002a6000396000f3fe6080604052600436106100865760003560e01c8063c6530e4111610059578063c6530e4114610118578063cba211fa14610138578063e84d4e961461016b578063ec3889b51461018b578063f26cf0c9146101ad57610086565b806322e037891461008b57806326232a2e146100c1578063641f5fbc146100d6578063720222c3146100eb575b600080fd5b34801561009757600080fd5b506100ab6100a63660046108ce565b6101c0565b6040516100b89190610ad7565b60405180910390f35b3480156100cd57600080fd5b506100ab6101f1565b3480156100e257600080fd5b506100ab6101f7565b3480156100f757600080fd5b5061010b6101063660046108ce565b61020d565b6040516100b891906109e8565b34801561012457600080fd5b5061010b6101333660046108ce565b61022d565b34801561014457600080fd5b50610158610153366004610985565b610258565b6040516100b89796959493929190610ae0565b34801561017757600080fd5b506100ab6101863660046108f9565b610439565b34801561019757600080fd5b506101ab6101a63660046108ab565b6105c6565b005b6101ab6101bb366004610985565b6105ff565b600260205281600052604060002081815481106101dc57600080fd5b90600052602060002001600091509150505481565b60045481565b600060016000546102089190610b89565b905090565b600360209081526000928352604080842090915290825290205460ff1681565b6001600160a01b03919091166000908152600360209081526040808320938352929052205460ff1690565b60016020819052600091825260409091208054918101805461027990610ba0565b80601f01602080910402602001604051908101604052809291908181526020018280546102a590610ba0565b80156102f25780601f106102c7576101008083540402835291602001916102f2565b820191906000526020600020905b8154815290600101906020018083116102d557829003601f168201915b50505050509080600201805461030790610ba0565b80601f016020809104026020016040519081016040528092919081815260200182805461033390610ba0565b80156103805780601f1061035557610100808354040283529160200191610380565b820191906000526020600020905b81548152906001019060200180831161036357829003601f168201915b50505050509080600301805461039590610ba0565b80601f01602080910402602001604051908101604052809291908181526020018280546103c190610ba0565b801561040e5780601f106103e35761010080835404028352916020019161040e565b820191906000526020600020905b8154815290600101906020018083116103f157829003601f168201915b5050505060048301546005909301549192916001600160a01b0381169150600160a01b900460ff1687565b600080546040805160e081018252828152602080820189815282840189905260608301889052608083018790523360a0840152600160c0840181905285875280835293862083518155905180519394919361049c93928501929190910190610791565b50604082015180516104b8916002840191602090910190610791565b50606082015180516104d4916003840191602090910190610791565b506080820151600482015560a08201516005909101805460c0909301511515600160a01b0260ff60a01b196001600160a01b039093166001600160a01b0319909416939093179190911691909117905533600081815260026020908152604080832080546001818101835591855283852001869055938352600382528083208584529091528120805460ff19169092179091558054908061057483610bdb565b9190505550336001600160a01b0316817fe273959eb9f649b65cbb95878cf05252ae12db839f5aeb854d37d1b2965b1ec386866040516105b59291906109f3565b60405180910390a395945050505050565b6040516001600160a01b038216904780156108fc02916000818181858888f193505050501580156105fb573d6000803e3d6000fd5b5050565b600081815260016020526040902080546106345760405162461bcd60e51b815260040161062b90610a15565b60405180910390fd5b6005810154600160a01b900460ff1661065f5760405162461bcd60e51b815260040161062b90610a43565b80600401543410156106835760405162461bcd60e51b815260040161062b90610aa9565b60058101546001600160a01b03163314156106b05760405162461bcd60e51b815260040161062b90610a72565b60006064600454346106c29190610b6a565b6106cc9190610b4a565b905060006106da8234610b89565b60058401546040519192506001600160a01b03169082156108fc029083906000818181858888f19350505050158015610717573d6000803e3d6000fd5b5033600081815260036020908152604080832088845290915290819020805460ff19166001179055600585015490516001600160a01b0391909116919086907f89ae4546456b3ebb021b56b1c083737f09b59b853b88bcf78c13cdbf71edf84b90610783903490610ad7565b60405180910390a450505050565b82805461079d90610ba0565b90600052602060002090601f0160209004810192826107bf5760008555610805565b82601f106107d857805160ff1916838001178555610805565b82800160010185558215610805579182015b828111156108055782518255916020019190600101906107ea565b50610811929150610815565b5090565b5b808211156108115760008155600101610816565b600082601f83011261083a578081fd5b813567ffffffffffffffff8082111561085557610855610c0c565b604051601f8301601f19168101602001828111828210171561087957610879610c0c565b604052828152848301602001861015610890578384fd5b82602086016020830137918201602001929092529392505050565b6000602082840312156108bc578081fd5b81356108c781610c22565b9392505050565b600080604083850312156108e0578081fd5b82356108eb81610c22565b946020939093013593505050565b6000806000806080858703121561090e578182fd5b843567ffffffffffffffff80821115610925578384fd5b6109318883890161082a565b95506020870135915080821115610946578384fd5b6109528883890161082a565b94506040870135915080821115610967578384fd5b506109748782880161082a565b949793965093946060013593505050565b600060208284031215610996578081fd5b5035919050565b60008151808452815b818110156109c2576020818501810151868301820152016109a6565b818111156109d35782602083870101525b50601f01601f19169290920160200192915050565b901515815260200190565b600060408252610a06604083018561099d565b90508260208301529392505050565b602080825260149082015273105d591a5bc8191bd95cc81b9bdd08195e1a5cdd60621b604082015260600190565b602080825260159082015274417564696f206973206e6f7420666f722073616c6560581b604082015260600190565b60208082526019908201527f43616e6e6f742062757920796f7572206f776e20617564696f00000000000000604082015260600190565b602080825260149082015273125b9cdd59999a58da595b9d081c185e5b595b9d60621b604082015260600190565b90815260200190565b600088825260e06020830152610af960e083018961099d565b8281036040840152610b0b818961099d565b90508281036060840152610b1f818861099d565b608084019690965250506001600160a01b039290921660a0830152151560c090910152949350505050565b600082610b6557634e487b7160e01b81526012600452602481fd5b500490565b6000816000190483118215151615610b8457610b84610bf6565b500290565b600082821015610b9b57610b9b610bf6565b500390565b600281046001821680610bb457607f821691505b60208210811415610bd557634e487b7160e01b600052602260045260246000fd5b50919050565b6000600019821415610bef57610bef610bf6565b5060010190565b634e487b7160e01b600052601160045260246000fd5b634e487b7160e01b600052604160045260246000fd5b6001600160a01b0381168114610c3757600080fd5b5056fea2646970667358221220e7106ee9101eb783f7c8c844fe935770754349b57a298d315fb570add6aefba964736f6c63430008000033",
  "immutableReferences": {},
  "source": "// SPDX-License-Identifier: MIT\r\npragma solidity ^0.8.0;\r\n\r\ncontract AudioChain {\r\n    struct Audio {\r\n        uint256 id;\r\n        string title;\r\n        string artist;\r\n        string ipfsHash;\r\n        uint256 price;\r\n        address payable owner;\r\n        bool isForSale;\r\n    }\r\n    \r\n    uint256 private nextAudioId = 1;\r\n    mapping(uint256 => Audio) public audios;\r\n    mapping(address => uint256[]) public userAudios;\r\n    mapping(address => mapping(uint256 => bool)) public audioAccess;\r\n    \r\n    uint256 public platformFee = 10; // 10%  \r\n    \r\n    event AudioPublished(uint256 indexed id, address indexed owner, string ipfsHash, uint256 price);\r\n    event AudioPurchased(uint256 indexed id, address indexed buyer, address indexed seller, uint256 amount);\r\n    \r\n    //  \r\n    function publishAudio(string memory _title, string memory _artist, string memory _ipfsHash, uint256 _price) public returns (uint256) {\r\n        uint256 audioId = nextAudioId;\r\n        \r\n        audios[audioId] = Audio({\r\n            id: audioId,\r\n            title: _title,\r\n            artist: _artist,\r\n            ipfsHash: _ipfsHash,\r\n            price: _price,\r\n            owner: payable(msg.sender),\r\n            isForSale: true\r\n        });\r\n        \r\n        userAudios[msg.sender].push(audioId);\r\n        audioAccess[msg.sender][audioId] = true; //   \r\n        \r\n        nextAudioId++;\r\n        \r\n        emit AudioPublished(audioId, msg.sender, _ipfsHash, _price);\r\n        return audioId;\r\n    }\r\n    \r\n    //  \r\n    function purchaseAudio(uint256 _audioId) public payable {\r\n        Audio storage audio = audios[_audioId];\r\n        require(audio.id > 0, \"Audio does not exist\");\r\n        require(audio.isForSale, \"Audio is not for sale\");\r\n        require(msg.value >= audio.price, \"Insufficient payment\");\r\n        require(msg.sender != audio.owner, \"Cannot buy your own audio\");\r\n        \r\n        uint256 platformAmount = (msg.value * platformFee) / 100;\r\n        uint256 ownerAmount = msg.value - platformAmount;\r\n        \r\n        audio.owner.transfer(ownerAmount);\r\n        //     \r\n        \r\n        audioAccess[msg.sender][_audioId] = true;\r\n        \r\n        emit AudioPurchased(_audioId, msg.sender, audio.owner, msg.value);\r\n    }\r\n    \r\n    //    \r\n    function hasAccess(address _user, uint256 _audioId) public view returns (bool) {\r\n        return audioAccess[_user][_audioId];\r\n    }\r\n    \r\n    //    \r\n    function getAudioCount() public view returns (uint256) {\r\n        return nextAudioId - 1;\r\n    }\r\n    \r\n    //    ( )\r\n    function withdrawPlatformFees(address payable _recipient) public {\r\n        //      \r\n        _recipient.transfer(address(this).balance);\r\n    }\r\n}",
  "sourcePath": "C:\\Users\\Admin\\Desktop\\EthCourseWork\\frontend\\contracts\\contract.sol",
  "compiler": {
    "name": "solc",
    "version": "0.8.0+commit.c7dfd78e.Emscripten.clang"
  },
  "schemaVersion": "3.4.16",
  "updatedAt": "2025-04-15T20:26:10.563Z",
  "devdoc": {
    "kind": "dev",
    "methods": {},
    "version": 1
  },
  "userdoc": {
    "kind": "user",
    "methods": {},
    "version": 1
  }
}